{
  "contracts/RealEstateRegistry.sol": {
    "RealEstateRegistry": {
      "abi": [
        {
          "anonymous": false,
          "inputs": [
            {
              "indexed": false,
              "internalType": "uint256",
              "name": "id",
              "type": "uint256"
            }
          ],
          "name": "PropertyDelisted",
          "type": "event"
        },
        {
          "anonymous": false,
          "inputs": [
            {
              "indexed": false,
              "internalType": "uint256",
              "name": "id",
              "type": "uint256"
            },
            {
              "indexed": false,
              "internalType": "uint256",
              "name": "price",
              "type": "uint256"
            }
          ],
          "name": "PropertyListed",
          "type": "event"
        },
        {
          "anonymous": false,
          "inputs": [
            {
              "indexed": false,
              "internalType": "uint256",
              "name": "id",
              "type": "uint256"
            },
            {
              "indexed": false,
              "internalType": "string",
              "name": "location",
              "type": "string"
            },
            {
              "indexed": false,
              "internalType": "address",
              "name": "owner",
              "type": "address"
            }
          ],
          "name": "PropertyRegistered",
          "type": "event"
        },
        {
          "anonymous": false,
          "inputs": [
            {
              "indexed": false,
              "internalType": "uint256",
              "name": "id",
              "type": "uint256"
            },
            {
              "indexed": false,
              "internalType": "address",
              "name": "from",
              "type": "address"
            },
            {
              "indexed": false,
              "internalType": "address",
              "name": "to",
              "type": "address"
            }
          ],
          "name": "PropertyTransferred",
          "type": "event"
        },
        {
          "inputs": [
            {
              "internalType": "uint256",
              "name": "_id",
              "type": "uint256"
            }
          ],
          "name": "delistProperty",
          "outputs": [],
          "stateMutability": "nonpayable",
          "type": "function"
        },
        {
          "inputs": [
            {
              "internalType": "uint256",
              "name": "_id",
              "type": "uint256"
            },
            {
              "internalType": "uint256",
              "name": "_price",
              "type": "uint256"
            }
          ],
          "name": "listProperty",
          "outputs": [],
          "stateMutability": "nonpayable",
          "type": "function"
        },
        {
          "inputs": [
            {
              "internalType": "uint256",
              "name": "",
              "type": "uint256"
            }
          ],
          "name": "properties",
          "outputs": [
            {
              "internalType": "uint256",
              "name": "id",
              "type": "uint256"
            },
            {
              "internalType": "string",
              "name": "location",
              "type": "string"
            },
            {
              "internalType": "address",
              "name": "owner",
              "type": "address"
            },
            {
              "internalType": "bool",
              "name": "forSale",
              "type": "bool"
            },
            {
              "internalType": "uint256",
              "name": "price",
              "type": "uint256"
            }
          ],
          "stateMutability": "view",
          "type": "function"
        },
        {
          "inputs": [],
          "name": "propertyCount",
          "outputs": [
            {
              "internalType": "uint256",
              "name": "",
              "type": "uint256"
            }
          ],
          "stateMutability": "view",
          "type": "function"
        },
        {
          "inputs": [
            {
              "internalType": "string",
              "name": "_location",
              "type": "string"
            }
          ],
          "name": "registerProperty",
          "outputs": [],
          "stateMutability": "nonpayable",
          "type": "function"
        },
        {
          "inputs": [
            {
              "internalType": "uint256",
              "name": "_id",
              "type": "uint256"
            },
            {
              "internalType": "address",
              "name": "_to",
              "type": "address"
            }
          ],
          "name": "transferProperty",
          "outputs": [],
          "stateMutability": "payable",
          "type": "function"
        }
      ],
      "evm": {
        "bytecode": {
          "linkReferences": {},
          "object": "608060405234801561001057600080fd5b50611347806100206000396000f3fe6080604052600436106100555760003560e01c80631cc2ea7a1461005a5780634eda529b14610083578063c361a335146100ac578063d2675d59146100d7578063f7b1080814610100578063ff35623714610141575b600080fd5b34801561006657600080fd5b50610081600480360381019061007c91906108c9565b61015d565b005b34801561008f57600080fd5b506100aa60048036038101906100a591906108f6565b610268565b005b3480156100b857600080fd5b506100c1610390565b6040516100ce9190610945565b60405180910390f35b3480156100e357600080fd5b506100fe60048036038101906100f99190610aa6565b610396565b005b34801561010c57600080fd5b50610127600480360381019061012291906108c9565b6104d9565b604051610138959493929190610bca565b60405180910390f35b61015b60048036038101906101569190610c50565b6105c4565b005b3373ffffffffffffffffffffffffffffffffffffffff1660008083815260200190815260200160002060020160009054906101000a900473ffffffffffffffffffffffffffffffffffffffff1673ffffffffffffffffffffffffffffffffffffffff1614610200576040517f08c379a00000000000000000000000000000000000000000000000000000000081526004016101f790610d02565b60405180910390fd5b600080600083815260200190815260200160002060020160146101000a81548160ff0219169083151502179055507f96abd22e7d47a60e2f7c6de9d91b2dacc141b1f21ce398bbd843e08c8ce6a02d8160405161025d9190610945565b60405180910390a150565b3373ffffffffffffffffffffffffffffffffffffffff1660008084815260200190815260200160002060020160009054906101000a900473ffffffffffffffffffffffffffffffffffffffff1673ffffffffffffffffffffffffffffffffffffffff161461030b576040517f08c379a000000000000000000000000000000000000000000000000000000000815260040161030290610d94565b60405180910390fd5b600160008084815260200190815260200160002060020160146101000a81548160ff02191690831515021790555080600080848152602001908152602001600020600301819055507fd2acfbe1632c42ab1e36cabad615126d27fa805ef1e2efc7ceec17c60ffbaafd8282604051610384929190610db4565b60405180910390a15050565b60015481565b600160008154809291906103a990610e0c565b91905055506040518060a0016040528060015481526020018281526020013373ffffffffffffffffffffffffffffffffffffffff168152602001600015158152602001600081525060008060015481526020019081526020016000206000820151816000015560208201518160010190816104249190611060565b5060408201518160020160006101000a81548173ffffffffffffffffffffffffffffffffffffffff021916908373ffffffffffffffffffffffffffffffffffffffff16021790555060608201518160020160146101000a81548160ff021916908315150217905550608082015181600301559050507f48f60036379fd7c4097915cf4b2dcab366c2d3881ae8b3cb2c19d6f7e35719b960015482336040516104ce93929190611132565b60405180910390a150565b600060205280600052604060002060009150905080600001549080600101805461050290610e83565b80601f016020809104026020016040519081016040528092919081815260200182805461052e90610e83565b801561057b5780601f106105505761010080835404028352916020019161057b565b820191906000526020600020905b81548152906001019060200180831161055e57829003601f168201915b5050505050908060020160009054906101000a900473ffffffffffffffffffffffffffffffffffffffff16908060020160149054906101000a900460ff16908060030154905085565b60008083815260200190815260200160002060020160149054906101000a900460ff16610626576040517f08c379a000000000000000000000000000000000000000000000000000000000815260040161061d906111bc565b60405180910390fd5b6000808381526020019081526020016000206003015434101561067e576040517f08c379a000000000000000000000000000000000000000000000000000000000815260040161067590611228565b60405180910390fd5b3373ffffffffffffffffffffffffffffffffffffffff1660008084815260200190815260200160002060020160009054906101000a900473ffffffffffffffffffffffffffffffffffffffff1673ffffffffffffffffffffffffffffffffffffffff1614610721576040517f08c379a0000000000000000000000000000000000000000000000000000000008152600401610718906112ba565b60405180910390fd5b600080600084815260200190815260200160002060020160009054906101000a900473ffffffffffffffffffffffffffffffffffffffff1690508160008085815260200190815260200160002060020160006101000a81548173ffffffffffffffffffffffffffffffffffffffff021916908373ffffffffffffffffffffffffffffffffffffffff160217905550600080600085815260200190815260200160002060020160146101000a81548160ff0219169083151502179055506000806000858152602001908152602001600020600301819055508073ffffffffffffffffffffffffffffffffffffffff166108fc349081150290604051600060405180830381858888f1935050505015801561083e573d6000803e3d6000fd5b507f2231fc8bc2c20e26d85d66dc7f13a6b6d535c86d2a4d678bb2de61f5b7136083838284604051610872939291906112da565b60405180910390a1505050565b6000604051905090565b600080fd5b600080fd5b6000819050919050565b6108a681610893565b81146108b157600080fd5b50565b6000813590506108c38161089d565b92915050565b6000602082840312156108df576108de610889565b5b60006108ed848285016108b4565b91505092915050565b6000806040838503121561090d5761090c610889565b5b600061091b858286016108b4565b925050602061092c858286016108b4565b9150509250929050565b61093f81610893565b82525050565b600060208201905061095a6000830184610936565b92915050565b600080fd5b600080fd5b6000601f19601f8301169050919050565b7f4e487b7100000000000000000000000000000000000000000000000000000000600052604160045260246000fd5b6109b38261096a565b810181811067ffffffffffffffff821117156109d2576109d161097b565b5b80604052505050565b60006109e561087f565b90506109f182826109aa565b919050565b600067ffffffffffffffff821115610a1157610a1061097b565b5b610a1a8261096a565b9050602081019050919050565b82818337600083830152505050565b6000610a49610a44846109f6565b6109db565b905082815260208101848484011115610a6557610a64610965565b5b610a70848285610a27565b509392505050565b600082601f830112610a8d57610a8c610960565b5b8135610a9d848260208601610a36565b91505092915050565b600060208284031215610abc57610abb610889565b5b600082013567ffffffffffffffff811115610ada57610ad961088e565b5b610ae684828501610a78565b91505092915050565b600081519050919050565b600082825260208201905092915050565b60005b83811015610b29578082015181840152602081019050610b0e565b60008484015250505050565b6000610b4082610aef565b610b4a8185610afa565b9350610b5a818560208601610b0b565b610b638161096a565b840191505092915050565b600073ffffffffffffffffffffffffffffffffffffffff82169050919050565b6000610b9982610b6e565b9050919050565b610ba981610b8e565b82525050565b60008115159050919050565b610bc481610baf565b82525050565b600060a082019050610bdf6000830188610936565b8181036020830152610bf18187610b35565b9050610c006040830186610ba0565b610c0d6060830185610bbb565b610c1a6080830184610936565b9695505050505050565b610c2d81610b8e565b8114610c3857600080fd5b50565b600081359050610c4a81610c24565b92915050565b60008060408385031215610c6757610c66610889565b5b6000610c75858286016108b4565b9250506020610c8685828601610c3b565b9150509250929050565b7f4f6e6c7920746865206f776e65722063616e2064656c6973742074686520707260008201527f6f70657274790000000000000000000000000000000000000000000000000000602082015250565b6000610cec602683610afa565b9150610cf782610c90565b604082019050919050565b60006020820190508181036000830152610d1b81610cdf565b9050919050565b7f4f6e6c7920746865206f776e65722063616e206c697374207468652070726f7060008201527f6572747900000000000000000000000000000000000000000000000000000000602082015250565b6000610d7e602483610afa565b9150610d8982610d22565b604082019050919050565b60006020820190508181036000830152610dad81610d71565b9050919050565b6000604082019050610dc96000830185610936565b610dd66020830184610936565b9392505050565b7f4e487b7100000000000000000000000000000000000000000000000000000000600052601160045260246000fd5b6000610e1782610893565b91507fffffffffffffffffffffffffffffffffffffffffffffffffffffffffffffffff8203610e4957610e48610ddd565b5b600182019050919050565b7f4e487b7100000000000000000000000000000000000000000000000000000000600052602260045260246000fd5b60006002820490506001821680610e9b57607f821691505b602082108103610eae57610ead610e54565b5b50919050565b60008190508160005260206000209050919050565b60006020601f8301049050919050565b600082821b905092915050565b600060088302610f167fffffffffffffffffffffffffffffffffffffffffffffffffffffffffffffffff82610ed9565b610f208683610ed9565b95508019841693508086168417925050509392505050565b6000819050919050565b6000610f5d610f58610f5384610893565b610f38565b610893565b9050919050565b6000819050919050565b610f7783610f42565b610f8b610f8382610f64565b848454610ee6565b825550505050565b600090565b610fa0610f93565b610fab818484610f6e565b505050565b5b81811015610fcf57610fc4600082610f98565b600181019050610fb1565b5050565b601f82111561101457610fe581610eb4565b610fee84610ec9565b81016020851015610ffd578190505b61101161100985610ec9565b830182610fb0565b50505b505050565b600082821c905092915050565b600061103760001984600802611019565b1980831691505092915050565b60006110508383611026565b9150826002028217905092915050565b61106982610aef565b67ffffffffffffffff8111156110825761108161097b565b5b61108c8254610e83565b611097828285610fd3565b600060209050601f8311600181146110ca57600084156110b8578287015190505b6110c28582611044565b86555061112a565b601f1984166110d886610eb4565b60005b82811015611100578489015182556001820191506020850194506020810190506110db565b8683101561111d5784890151611119601f891682611026565b8355505b6001600288020188555050505b505050505050565b60006060820190506111476000830186610936565b81810360208301526111598185610b35565b90506111686040830184610ba0565b949350505050565b7f50726f7065727479206973206e6f7420666f722073616c650000000000000000600082015250565b60006111a6601883610afa565b91506111b182611170565b602082019050919050565b600060208201905081810360008301526111d581611199565b9050919050565b7f496e73756666696369656e742066756e64732073656e74000000000000000000600082015250565b6000611212601783610afa565b915061121d826111dc565b602082019050919050565b6000602082019050818103600083015261124181611205565b9050919050565b7f4f6e6c7920746865206f776e65722063616e207472616e73666572207468652060008201527f70726f7065727479000000000000000000000000000000000000000000000000602082015250565b60006112a4602883610afa565b91506112af82611248565b604082019050919050565b600060208201905081810360008301526112d381611297565b9050919050565b60006060820190506112ef6000830186610936565b6112fc6020830185610ba0565b6113096040830184610ba0565b94935050505056fea264697066735822122079af1bdad1e105890736e56f0093f8c94c914e73e2ab0f58ca426fbab73d14df64736f6c63430008180033",
          "opcodes": "PUSH1 0x80 PUSH1 0x40 MSTORE CALLVALUE DUP1 ISZERO PUSH2 0x10 JUMPI PUSH1 0x0 DUP1 REVERT JUMPDEST POP PUSH2 0x1347 DUP1 PUSH2 0x20 PUSH1 0x0 CODECOPY PUSH1 0x0 RETURN INVALID PUSH1 0x80 PUSH1 0x40 MSTORE PUSH1 0x4 CALLDATASIZE LT PUSH2 0x55 JUMPI PUSH1 0x0 CALLDATALOAD PUSH1 0xE0 SHR DUP1 PUSH4 0x1CC2EA7A EQ PUSH2 0x5A JUMPI DUP1 PUSH4 0x4EDA529B EQ PUSH2 0x83 JUMPI DUP1 PUSH4 0xC361A335 EQ PUSH2 0xAC JUMPI DUP1 PUSH4 0xD2675D59 EQ PUSH2 0xD7 JUMPI DUP1 PUSH4 0xF7B10808 EQ PUSH2 0x100 JUMPI DUP1 PUSH4 0xFF356237 EQ PUSH2 0x141 JUMPI JUMPDEST PUSH1 0x0 DUP1 REVERT JUMPDEST CALLVALUE DUP1 ISZERO PUSH2 0x66 JUMPI PUSH1 0x0 DUP1 REVERT JUMPDEST POP PUSH2 0x81 PUSH1 0x4 DUP1 CALLDATASIZE SUB DUP2 ADD SWAP1 PUSH2 0x7C SWAP2 SWAP1 PUSH2 0x8C9 JUMP JUMPDEST PUSH2 0x15D JUMP JUMPDEST STOP JUMPDEST CALLVALUE DUP1 ISZERO PUSH2 0x8F JUMPI PUSH1 0x0 DUP1 REVERT JUMPDEST POP PUSH2 0xAA PUSH1 0x4 DUP1 CALLDATASIZE SUB DUP2 ADD SWAP1 PUSH2 0xA5 SWAP2 SWAP1 PUSH2 0x8F6 JUMP JUMPDEST PUSH2 0x268 JUMP JUMPDEST STOP JUMPDEST CALLVALUE DUP1 ISZERO PUSH2 0xB8 JUMPI PUSH1 0x0 DUP1 REVERT JUMPDEST POP PUSH2 0xC1 PUSH2 0x390 JUMP JUMPDEST PUSH1 0x40 MLOAD PUSH2 0xCE SWAP2 SWAP1 PUSH2 0x945 JUMP JUMPDEST PUSH1 0x40 MLOAD DUP1 SWAP2 SUB SWAP1 RETURN JUMPDEST CALLVALUE DUP1 ISZERO PUSH2 0xE3 JUMPI PUSH1 0x0 DUP1 REVERT JUMPDEST POP PUSH2 0xFE PUSH1 0x4 DUP1 CALLDATASIZE SUB DUP2 ADD SWAP1 PUSH2 0xF9 SWAP2 SWAP1 PUSH2 0xAA6 JUMP JUMPDEST PUSH2 0x396 JUMP JUMPDEST STOP JUMPDEST CALLVALUE DUP1 ISZERO PUSH2 0x10C JUMPI PUSH1 0x0 DUP1 REVERT JUMPDEST POP PUSH2 0x127 PUSH1 0x4 DUP1 CALLDATASIZE SUB DUP2 ADD SWAP1 PUSH2 0x122 SWAP2 SWAP1 PUSH2 0x8C9 JUMP JUMPDEST PUSH2 0x4D9 JUMP JUMPDEST PUSH1 0x40 MLOAD PUSH2 0x138 SWAP6 SWAP5 SWAP4 SWAP3 SWAP2 SWAP1 PUSH2 0xBCA JUMP JUMPDEST PUSH1 0x40 MLOAD DUP1 SWAP2 SUB SWAP1 RETURN JUMPDEST PUSH2 0x15B PUSH1 0x4 DUP1 CALLDATASIZE SUB DUP2 ADD SWAP1 PUSH2 0x156 SWAP2 SWAP1 PUSH2 0xC50 JUMP JUMPDEST PUSH2 0x5C4 JUMP JUMPDEST STOP JUMPDEST CALLER PUSH20 0xFFFFFFFFFFFFFFFFFFFFFFFFFFFFFFFFFFFFFFFF AND PUSH1 0x0 DUP1 DUP4 DUP2 MSTORE PUSH1 0x20 ADD SWAP1 DUP2 MSTORE PUSH1 0x20 ADD PUSH1 0x0 KECCAK256 PUSH1 0x2 ADD PUSH1 0x0 SWAP1 SLOAD SWAP1 PUSH2 0x100 EXP SWAP1 DIV PUSH20 0xFFFFFFFFFFFFFFFFFFFFFFFFFFFFFFFFFFFFFFFF AND PUSH20 0xFFFFFFFFFFFFFFFFFFFFFFFFFFFFFFFFFFFFFFFF AND EQ PUSH2 0x200 JUMPI PUSH1 0x40 MLOAD PUSH32 0x8C379A000000000000000000000000000000000000000000000000000000000 DUP2 MSTORE PUSH1 0x4 ADD PUSH2 0x1F7 SWAP1 PUSH2 0xD02 JUMP JUMPDEST PUSH1 0x40 MLOAD DUP1 SWAP2 SUB SWAP1 REVERT JUMPDEST PUSH1 0x0 DUP1 PUSH1 0x0 DUP4 DUP2 MSTORE PUSH1 0x20 ADD SWAP1 DUP2 MSTORE PUSH1 0x20 ADD PUSH1 0x0 KECCAK256 PUSH1 0x2 ADD PUSH1 0x14 PUSH2 0x100 EXP DUP2 SLOAD DUP2 PUSH1 0xFF MUL NOT AND SWAP1 DUP4 ISZERO ISZERO MUL OR SWAP1 SSTORE POP PUSH32 0x96ABD22E7D47A60E2F7C6DE9D91B2DACC141B1F21CE398BBD843E08C8CE6A02D DUP2 PUSH1 0x40 MLOAD PUSH2 0x25D SWAP2 SWAP1 PUSH2 0x945 JUMP JUMPDEST PUSH1 0x40 MLOAD DUP1 SWAP2 SUB SWAP1 LOG1 POP JUMP JUMPDEST CALLER PUSH20 0xFFFFFFFFFFFFFFFFFFFFFFFFFFFFFFFFFFFFFFFF AND PUSH1 0x0 DUP1 DUP5 DUP2 MSTORE PUSH1 0x20 ADD SWAP1 DUP2 MSTORE PUSH1 0x20 ADD PUSH1 0x0 KECCAK256 PUSH1 0x2 ADD PUSH1 0x0 SWAP1 SLOAD SWAP1 PUSH2 0x100 EXP SWAP1 DIV PUSH20 0xFFFFFFFFFFFFFFFFFFFFFFFFFFFFFFFFFFFFFFFF AND PUSH20 0xFFFFFFFFFFFFFFFFFFFFFFFFFFFFFFFFFFFFFFFF AND EQ PUSH2 0x30B JUMPI PUSH1 0x40 MLOAD PUSH32 0x8C379A000000000000000000000000000000000000000000000000000000000 DUP2 MSTORE PUSH1 0x4 ADD PUSH2 0x302 SWAP1 PUSH2 0xD94 JUMP JUMPDEST PUSH1 0x40 MLOAD DUP1 SWAP2 SUB SWAP1 REVERT JUMPDEST PUSH1 0x1 PUSH1 0x0 DUP1 DUP5 DUP2 MSTORE PUSH1 0x20 ADD SWAP1 DUP2 MSTORE PUSH1 0x20 ADD PUSH1 0x0 KECCAK256 PUSH1 0x2 ADD PUSH1 0x14 PUSH2 0x100 EXP DUP2 SLOAD DUP2 PUSH1 0xFF MUL NOT AND SWAP1 DUP4 ISZERO ISZERO MUL OR SWAP1 SSTORE POP DUP1 PUSH1 0x0 DUP1 DUP5 DUP2 MSTORE PUSH1 0x20 ADD SWAP1 DUP2 MSTORE PUSH1 0x20 ADD PUSH1 0x0 KECCAK256 PUSH1 0x3 ADD DUP2 SWAP1 SSTORE POP PUSH32 0xD2ACFBE1632C42AB1E36CABAD615126D27FA805EF1E2EFC7CEEC17C60FFBAAFD DUP3 DUP3 PUSH1 0x40 MLOAD PUSH2 0x384 SWAP3 SWAP2 SWAP1 PUSH2 0xDB4 JUMP JUMPDEST PUSH1 0x40 MLOAD DUP1 SWAP2 SUB SWAP1 LOG1 POP POP JUMP JUMPDEST PUSH1 0x1 SLOAD DUP2 JUMP JUMPDEST PUSH1 0x1 PUSH1 0x0 DUP2 SLOAD DUP1 SWAP3 SWAP2 SWAP1 PUSH2 0x3A9 SWAP1 PUSH2 0xE0C JUMP JUMPDEST SWAP2 SWAP1 POP SSTORE POP PUSH1 0x40 MLOAD DUP1 PUSH1 0xA0 ADD PUSH1 0x40 MSTORE DUP1 PUSH1 0x1 SLOAD DUP2 MSTORE PUSH1 0x20 ADD DUP3 DUP2 MSTORE PUSH1 0x20 ADD CALLER PUSH20 0xFFFFFFFFFFFFFFFFFFFFFFFFFFFFFFFFFFFFFFFF AND DUP2 MSTORE PUSH1 0x20 ADD PUSH1 0x0 ISZERO ISZERO DUP2 MSTORE PUSH1 0x20 ADD PUSH1 0x0 DUP2 MSTORE POP PUSH1 0x0 DUP1 PUSH1 0x1 SLOAD DUP2 MSTORE PUSH1 0x20 ADD SWAP1 DUP2 MSTORE PUSH1 0x20 ADD PUSH1 0x0 KECCAK256 PUSH1 0x0 DUP3 ADD MLOAD DUP2 PUSH1 0x0 ADD SSTORE PUSH1 0x20 DUP3 ADD MLOAD DUP2 PUSH1 0x1 ADD SWAP1 DUP2 PUSH2 0x424 SWAP2 SWAP1 PUSH2 0x1060 JUMP JUMPDEST POP PUSH1 0x40 DUP3 ADD MLOAD DUP2 PUSH1 0x2 ADD PUSH1 0x0 PUSH2 0x100 EXP DUP2 SLOAD DUP2 PUSH20 0xFFFFFFFFFFFFFFFFFFFFFFFFFFFFFFFFFFFFFFFF MUL NOT AND SWAP1 DUP4 PUSH20 0xFFFFFFFFFFFFFFFFFFFFFFFFFFFFFFFFFFFFFFFF AND MUL OR SWAP1 SSTORE POP PUSH1 0x60 DUP3 ADD MLOAD DUP2 PUSH1 0x2 ADD PUSH1 0x14 PUSH2 0x100 EXP DUP2 SLOAD DUP2 PUSH1 0xFF MUL NOT AND SWAP1 DUP4 ISZERO ISZERO MUL OR SWAP1 SSTORE POP PUSH1 0x80 DUP3 ADD MLOAD DUP2 PUSH1 0x3 ADD SSTORE SWAP1 POP POP PUSH32 0x48F60036379FD7C4097915CF4B2DCAB366C2D3881AE8B3CB2C19D6F7E35719B9 PUSH1 0x1 SLOAD DUP3 CALLER PUSH1 0x40 MLOAD PUSH2 0x4CE SWAP4 SWAP3 SWAP2 SWAP1 PUSH2 0x1132 JUMP JUMPDEST PUSH1 0x40 MLOAD DUP1 SWAP2 SUB SWAP1 LOG1 POP JUMP JUMPDEST PUSH1 0x0 PUSH1 0x20 MSTORE DUP1 PUSH1 0x0 MSTORE PUSH1 0x40 PUSH1 0x0 KECCAK256 PUSH1 0x0 SWAP2 POP SWAP1 POP DUP1 PUSH1 0x0 ADD SLOAD SWAP1 DUP1 PUSH1 0x1 ADD DUP1 SLOAD PUSH2 0x502 SWAP1 PUSH2 0xE83 JUMP JUMPDEST DUP1 PUSH1 0x1F ADD PUSH1 0x20 DUP1 SWAP2 DIV MUL PUSH1 0x20 ADD PUSH1 0x40 MLOAD SWAP1 DUP2 ADD PUSH1 0x40 MSTORE DUP1 SWAP3 SWAP2 SWAP1 DUP2 DUP2 MSTORE PUSH1 0x20 ADD DUP3 DUP1 SLOAD PUSH2 0x52E SWAP1 PUSH2 0xE83 JUMP JUMPDEST DUP1 ISZERO PUSH2 0x57B JUMPI DUP1 PUSH1 0x1F LT PUSH2 0x550 JUMPI PUSH2 0x100 DUP1 DUP4 SLOAD DIV MUL DUP4 MSTORE SWAP2 PUSH1 0x20 ADD SWAP2 PUSH2 0x57B JUMP JUMPDEST DUP3 ADD SWAP2 SWAP1 PUSH1 0x0 MSTORE PUSH1 0x20 PUSH1 0x0 KECCAK256 SWAP1 JUMPDEST DUP2 SLOAD DUP2 MSTORE SWAP1 PUSH1 0x1 ADD SWAP1 PUSH1 0x20 ADD DUP1 DUP4 GT PUSH2 0x55E JUMPI DUP3 SWAP1 SUB PUSH1 0x1F AND DUP3 ADD SWAP2 JUMPDEST POP POP POP POP POP SWAP1 DUP1 PUSH1 0x2 ADD PUSH1 0x0 SWAP1 SLOAD SWAP1 PUSH2 0x100 EXP SWAP1 DIV PUSH20 0xFFFFFFFFFFFFFFFFFFFFFFFFFFFFFFFFFFFFFFFF AND SWAP1 DUP1 PUSH1 0x2 ADD PUSH1 0x14 SWAP1 SLOAD SWAP1 PUSH2 0x100 EXP SWAP1 DIV PUSH1 0xFF AND SWAP1 DUP1 PUSH1 0x3 ADD SLOAD SWAP1 POP DUP6 JUMP JUMPDEST PUSH1 0x0 DUP1 DUP4 DUP2 MSTORE PUSH1 0x20 ADD SWAP1 DUP2 MSTORE PUSH1 0x20 ADD PUSH1 0x0 KECCAK256 PUSH1 0x2 ADD PUSH1 0x14 SWAP1 SLOAD SWAP1 PUSH2 0x100 EXP SWAP1 DIV PUSH1 0xFF AND PUSH2 0x626 JUMPI PUSH1 0x40 MLOAD PUSH32 0x8C379A000000000000000000000000000000000000000000000000000000000 DUP2 MSTORE PUSH1 0x4 ADD PUSH2 0x61D SWAP1 PUSH2 0x11BC JUMP JUMPDEST PUSH1 0x40 MLOAD DUP1 SWAP2 SUB SWAP1 REVERT JUMPDEST PUSH1 0x0 DUP1 DUP4 DUP2 MSTORE PUSH1 0x20 ADD SWAP1 DUP2 MSTORE PUSH1 0x20 ADD PUSH1 0x0 KECCAK256 PUSH1 0x3 ADD SLOAD CALLVALUE LT ISZERO PUSH2 0x67E JUMPI PUSH1 0x40 MLOAD PUSH32 0x8C379A000000000000000000000000000000000000000000000000000000000 DUP2 MSTORE PUSH1 0x4 ADD PUSH2 0x675 SWAP1 PUSH2 0x1228 JUMP JUMPDEST PUSH1 0x40 MLOAD DUP1 SWAP2 SUB SWAP1 REVERT JUMPDEST CALLER PUSH20 0xFFFFFFFFFFFFFFFFFFFFFFFFFFFFFFFFFFFFFFFF AND PUSH1 0x0 DUP1 DUP5 DUP2 MSTORE PUSH1 0x20 ADD SWAP1 DUP2 MSTORE PUSH1 0x20 ADD PUSH1 0x0 KECCAK256 PUSH1 0x2 ADD PUSH1 0x0 SWAP1 SLOAD SWAP1 PUSH2 0x100 EXP SWAP1 DIV PUSH20 0xFFFFFFFFFFFFFFFFFFFFFFFFFFFFFFFFFFFFFFFF AND PUSH20 0xFFFFFFFFFFFFFFFFFFFFFFFFFFFFFFFFFFFFFFFF AND EQ PUSH2 0x721 JUMPI PUSH1 0x40 MLOAD PUSH32 0x8C379A000000000000000000000000000000000000000000000000000000000 DUP2 MSTORE PUSH1 0x4 ADD PUSH2 0x718 SWAP1 PUSH2 0x12BA JUMP JUMPDEST PUSH1 0x40 MLOAD DUP1 SWAP2 SUB SWAP1 REVERT JUMPDEST PUSH1 0x0 DUP1 PUSH1 0x0 DUP5 DUP2 MSTORE PUSH1 0x20 ADD SWAP1 DUP2 MSTORE PUSH1 0x20 ADD PUSH1 0x0 KECCAK256 PUSH1 0x2 ADD PUSH1 0x0 SWAP1 SLOAD SWAP1 PUSH2 0x100 EXP SWAP1 DIV PUSH20 0xFFFFFFFFFFFFFFFFFFFFFFFFFFFFFFFFFFFFFFFF AND SWAP1 POP DUP2 PUSH1 0x0 DUP1 DUP6 DUP2 MSTORE PUSH1 0x20 ADD SWAP1 DUP2 MSTORE PUSH1 0x20 ADD PUSH1 0x0 KECCAK256 PUSH1 0x2 ADD PUSH1 0x0 PUSH2 0x100 EXP DUP2 SLOAD DUP2 PUSH20 0xFFFFFFFFFFFFFFFFFFFFFFFFFFFFFFFFFFFFFFFF MUL NOT AND SWAP1 DUP4 PUSH20 0xFFFFFFFFFFFFFFFFFFFFFFFFFFFFFFFFFFFFFFFF AND MUL OR SWAP1 SSTORE POP PUSH1 0x0 DUP1 PUSH1 0x0 DUP6 DUP2 MSTORE PUSH1 0x20 ADD SWAP1 DUP2 MSTORE PUSH1 0x20 ADD PUSH1 0x0 KECCAK256 PUSH1 0x2 ADD PUSH1 0x14 PUSH2 0x100 EXP DUP2 SLOAD DUP2 PUSH1 0xFF MUL NOT AND SWAP1 DUP4 ISZERO ISZERO MUL OR SWAP1 SSTORE POP PUSH1 0x0 DUP1 PUSH1 0x0 DUP6 DUP2 MSTORE PUSH1 0x20 ADD SWAP1 DUP2 MSTORE PUSH1 0x20 ADD PUSH1 0x0 KECCAK256 PUSH1 0x3 ADD DUP2 SWAP1 SSTORE POP DUP1 PUSH20 0xFFFFFFFFFFFFFFFFFFFFFFFFFFFFFFFFFFFFFFFF AND PUSH2 0x8FC CALLVALUE SWAP1 DUP2 ISZERO MUL SWAP1 PUSH1 0x40 MLOAD PUSH1 0x0 PUSH1 0x40 MLOAD DUP1 DUP4 SUB DUP2 DUP6 DUP9 DUP9 CALL SWAP4 POP POP POP POP ISZERO DUP1 ISZERO PUSH2 0x83E JUMPI RETURNDATASIZE PUSH1 0x0 DUP1 RETURNDATACOPY RETURNDATASIZE PUSH1 0x0 REVERT JUMPDEST POP PUSH32 0x2231FC8BC2C20E26D85D66DC7F13A6B6D535C86D2A4D678BB2DE61F5B7136083 DUP4 DUP3 DUP5 PUSH1 0x40 MLOAD PUSH2 0x872 SWAP4 SWAP3 SWAP2 SWAP1 PUSH2 0x12DA JUMP JUMPDEST PUSH1 0x40 MLOAD DUP1 SWAP2 SUB SWAP1 LOG1 POP POP POP JUMP JUMPDEST PUSH1 0x0 PUSH1 0x40 MLOAD SWAP1 POP SWAP1 JUMP JUMPDEST PUSH1 0x0 DUP1 REVERT JUMPDEST PUSH1 0x0 DUP1 REVERT JUMPDEST PUSH1 0x0 DUP2 SWAP1 POP SWAP2 SWAP1 POP JUMP JUMPDEST PUSH2 0x8A6 DUP2 PUSH2 0x893 JUMP JUMPDEST DUP2 EQ PUSH2 0x8B1 JUMPI PUSH1 0x0 DUP1 REVERT JUMPDEST POP JUMP JUMPDEST PUSH1 0x0 DUP2 CALLDATALOAD SWAP1 POP PUSH2 0x8C3 DUP2 PUSH2 0x89D JUMP JUMPDEST SWAP3 SWAP2 POP POP JUMP JUMPDEST PUSH1 0x0 PUSH1 0x20 DUP3 DUP5 SUB SLT ISZERO PUSH2 0x8DF JUMPI PUSH2 0x8DE PUSH2 0x889 JUMP JUMPDEST JUMPDEST PUSH1 0x0 PUSH2 0x8ED DUP5 DUP3 DUP6 ADD PUSH2 0x8B4 JUMP JUMPDEST SWAP2 POP POP SWAP3 SWAP2 POP POP JUMP JUMPDEST PUSH1 0x0 DUP1 PUSH1 0x40 DUP4 DUP6 SUB SLT ISZERO PUSH2 0x90D JUMPI PUSH2 0x90C PUSH2 0x889 JUMP JUMPDEST JUMPDEST PUSH1 0x0 PUSH2 0x91B DUP6 DUP3 DUP7 ADD PUSH2 0x8B4 JUMP JUMPDEST SWAP3 POP POP PUSH1 0x20 PUSH2 0x92C DUP6 DUP3 DUP7 ADD PUSH2 0x8B4 JUMP JUMPDEST SWAP2 POP POP SWAP3 POP SWAP3 SWAP1 POP JUMP JUMPDEST PUSH2 0x93F DUP2 PUSH2 0x893 JUMP JUMPDEST DUP3 MSTORE POP POP JUMP JUMPDEST PUSH1 0x0 PUSH1 0x20 DUP3 ADD SWAP1 POP PUSH2 0x95A PUSH1 0x0 DUP4 ADD DUP5 PUSH2 0x936 JUMP JUMPDEST SWAP3 SWAP2 POP POP JUMP JUMPDEST PUSH1 0x0 DUP1 REVERT JUMPDEST PUSH1 0x0 DUP1 REVERT JUMPDEST PUSH1 0x0 PUSH1 0x1F NOT PUSH1 0x1F DUP4 ADD AND SWAP1 POP SWAP2 SWAP1 POP JUMP JUMPDEST PUSH32 0x4E487B7100000000000000000000000000000000000000000000000000000000 PUSH1 0x0 MSTORE PUSH1 0x41 PUSH1 0x4 MSTORE PUSH1 0x24 PUSH1 0x0 REVERT JUMPDEST PUSH2 0x9B3 DUP3 PUSH2 0x96A JUMP JUMPDEST DUP2 ADD DUP2 DUP2 LT PUSH8 0xFFFFFFFFFFFFFFFF DUP3 GT OR ISZERO PUSH2 0x9D2 JUMPI PUSH2 0x9D1 PUSH2 0x97B JUMP JUMPDEST JUMPDEST DUP1 PUSH1 0x40 MSTORE POP POP POP JUMP JUMPDEST PUSH1 0x0 PUSH2 0x9E5 PUSH2 0x87F JUMP JUMPDEST SWAP1 POP PUSH2 0x9F1 DUP3 DUP3 PUSH2 0x9AA JUMP JUMPDEST SWAP2 SWAP1 POP JUMP JUMPDEST PUSH1 0x0 PUSH8 0xFFFFFFFFFFFFFFFF DUP3 GT ISZERO PUSH2 0xA11 JUMPI PUSH2 0xA10 PUSH2 0x97B JUMP JUMPDEST JUMPDEST PUSH2 0xA1A DUP3 PUSH2 0x96A JUMP JUMPDEST SWAP1 POP PUSH1 0x20 DUP2 ADD SWAP1 POP SWAP2 SWAP1 POP JUMP JUMPDEST DUP3 DUP2 DUP4 CALLDATACOPY PUSH1 0x0 DUP4 DUP4 ADD MSTORE POP POP POP JUMP JUMPDEST PUSH1 0x0 PUSH2 0xA49 PUSH2 0xA44 DUP5 PUSH2 0x9F6 JUMP JUMPDEST PUSH2 0x9DB JUMP JUMPDEST SWAP1 POP DUP3 DUP2 MSTORE PUSH1 0x20 DUP2 ADD DUP5 DUP5 DUP5 ADD GT ISZERO PUSH2 0xA65 JUMPI PUSH2 0xA64 PUSH2 0x965 JUMP JUMPDEST JUMPDEST PUSH2 0xA70 DUP5 DUP3 DUP6 PUSH2 0xA27 JUMP JUMPDEST POP SWAP4 SWAP3 POP POP POP JUMP JUMPDEST PUSH1 0x0 DUP3 PUSH1 0x1F DUP4 ADD SLT PUSH2 0xA8D JUMPI PUSH2 0xA8C PUSH2 0x960 JUMP JUMPDEST JUMPDEST DUP2 CALLDATALOAD PUSH2 0xA9D DUP5 DUP3 PUSH1 0x20 DUP7 ADD PUSH2 0xA36 JUMP JUMPDEST SWAP2 POP POP SWAP3 SWAP2 POP POP JUMP JUMPDEST PUSH1 0x0 PUSH1 0x20 DUP3 DUP5 SUB SLT ISZERO PUSH2 0xABC JUMPI PUSH2 0xABB PUSH2 0x889 JUMP JUMPDEST JUMPDEST PUSH1 0x0 DUP3 ADD CALLDATALOAD PUSH8 0xFFFFFFFFFFFFFFFF DUP2 GT ISZERO PUSH2 0xADA JUMPI PUSH2 0xAD9 PUSH2 0x88E JUMP JUMPDEST JUMPDEST PUSH2 0xAE6 DUP5 DUP3 DUP6 ADD PUSH2 0xA78 JUMP JUMPDEST SWAP2 POP POP SWAP3 SWAP2 POP POP JUMP JUMPDEST PUSH1 0x0 DUP2 MLOAD SWAP1 POP SWAP2 SWAP1 POP JUMP JUMPDEST PUSH1 0x0 DUP3 DUP3 MSTORE PUSH1 0x20 DUP3 ADD SWAP1 POP SWAP3 SWAP2 POP POP JUMP JUMPDEST PUSH1 0x0 JUMPDEST DUP4 DUP2 LT ISZERO PUSH2 0xB29 JUMPI DUP1 DUP3 ADD MLOAD DUP2 DUP5 ADD MSTORE PUSH1 0x20 DUP2 ADD SWAP1 POP PUSH2 0xB0E JUMP JUMPDEST PUSH1 0x0 DUP5 DUP5 ADD MSTORE POP POP POP POP JUMP JUMPDEST PUSH1 0x0 PUSH2 0xB40 DUP3 PUSH2 0xAEF JUMP JUMPDEST PUSH2 0xB4A DUP2 DUP6 PUSH2 0xAFA JUMP JUMPDEST SWAP4 POP PUSH2 0xB5A DUP2 DUP6 PUSH1 0x20 DUP7 ADD PUSH2 0xB0B JUMP JUMPDEST PUSH2 0xB63 DUP2 PUSH2 0x96A JUMP JUMPDEST DUP5 ADD SWAP2 POP POP SWAP3 SWAP2 POP POP JUMP JUMPDEST PUSH1 0x0 PUSH20 0xFFFFFFFFFFFFFFFFFFFFFFFFFFFFFFFFFFFFFFFF DUP3 AND SWAP1 POP SWAP2 SWAP1 POP JUMP JUMPDEST PUSH1 0x0 PUSH2 0xB99 DUP3 PUSH2 0xB6E JUMP JUMPDEST SWAP1 POP SWAP2 SWAP1 POP JUMP JUMPDEST PUSH2 0xBA9 DUP2 PUSH2 0xB8E JUMP JUMPDEST DUP3 MSTORE POP POP JUMP JUMPDEST PUSH1 0x0 DUP2 ISZERO ISZERO SWAP1 POP SWAP2 SWAP1 POP JUMP JUMPDEST PUSH2 0xBC4 DUP2 PUSH2 0xBAF JUMP JUMPDEST DUP3 MSTORE POP POP JUMP JUMPDEST PUSH1 0x0 PUSH1 0xA0 DUP3 ADD SWAP1 POP PUSH2 0xBDF PUSH1 0x0 DUP4 ADD DUP9 PUSH2 0x936 JUMP JUMPDEST DUP2 DUP2 SUB PUSH1 0x20 DUP4 ADD MSTORE PUSH2 0xBF1 DUP2 DUP8 PUSH2 0xB35 JUMP JUMPDEST SWAP1 POP PUSH2 0xC00 PUSH1 0x40 DUP4 ADD DUP7 PUSH2 0xBA0 JUMP JUMPDEST PUSH2 0xC0D PUSH1 0x60 DUP4 ADD DUP6 PUSH2 0xBBB JUMP JUMPDEST PUSH2 0xC1A PUSH1 0x80 DUP4 ADD DUP5 PUSH2 0x936 JUMP JUMPDEST SWAP7 SWAP6 POP POP POP POP POP POP JUMP JUMPDEST PUSH2 0xC2D DUP2 PUSH2 0xB8E JUMP JUMPDEST DUP2 EQ PUSH2 0xC38 JUMPI PUSH1 0x0 DUP1 REVERT JUMPDEST POP JUMP JUMPDEST PUSH1 0x0 DUP2 CALLDATALOAD SWAP1 POP PUSH2 0xC4A DUP2 PUSH2 0xC24 JUMP JUMPDEST SWAP3 SWAP2 POP POP JUMP JUMPDEST PUSH1 0x0 DUP1 PUSH1 0x40 DUP4 DUP6 SUB SLT ISZERO PUSH2 0xC67 JUMPI PUSH2 0xC66 PUSH2 0x889 JUMP JUMPDEST JUMPDEST PUSH1 0x0 PUSH2 0xC75 DUP6 DUP3 DUP7 ADD PUSH2 0x8B4 JUMP JUMPDEST SWAP3 POP POP PUSH1 0x20 PUSH2 0xC86 DUP6 DUP3 DUP7 ADD PUSH2 0xC3B JUMP JUMPDEST SWAP2 POP POP SWAP3 POP SWAP3 SWAP1 POP JUMP JUMPDEST PUSH32 0x4F6E6C7920746865206F776E65722063616E2064656C69737420746865207072 PUSH1 0x0 DUP3 ADD MSTORE PUSH32 0x6F70657274790000000000000000000000000000000000000000000000000000 PUSH1 0x20 DUP3 ADD MSTORE POP JUMP JUMPDEST PUSH1 0x0 PUSH2 0xCEC PUSH1 0x26 DUP4 PUSH2 0xAFA JUMP JUMPDEST SWAP2 POP PUSH2 0xCF7 DUP3 PUSH2 0xC90 JUMP JUMPDEST PUSH1 0x40 DUP3 ADD SWAP1 POP SWAP2 SWAP1 POP JUMP JUMPDEST PUSH1 0x0 PUSH1 0x20 DUP3 ADD SWAP1 POP DUP2 DUP2 SUB PUSH1 0x0 DUP4 ADD MSTORE PUSH2 0xD1B DUP2 PUSH2 0xCDF JUMP JUMPDEST SWAP1 POP SWAP2 SWAP1 POP JUMP JUMPDEST PUSH32 0x4F6E6C7920746865206F776E65722063616E206C697374207468652070726F70 PUSH1 0x0 DUP3 ADD MSTORE PUSH32 0x6572747900000000000000000000000000000000000000000000000000000000 PUSH1 0x20 DUP3 ADD MSTORE POP JUMP JUMPDEST PUSH1 0x0 PUSH2 0xD7E PUSH1 0x24 DUP4 PUSH2 0xAFA JUMP JUMPDEST SWAP2 POP PUSH2 0xD89 DUP3 PUSH2 0xD22 JUMP JUMPDEST PUSH1 0x40 DUP3 ADD SWAP1 POP SWAP2 SWAP1 POP JUMP JUMPDEST PUSH1 0x0 PUSH1 0x20 DUP3 ADD SWAP1 POP DUP2 DUP2 SUB PUSH1 0x0 DUP4 ADD MSTORE PUSH2 0xDAD DUP2 PUSH2 0xD71 JUMP JUMPDEST SWAP1 POP SWAP2 SWAP1 POP JUMP JUMPDEST PUSH1 0x0 PUSH1 0x40 DUP3 ADD SWAP1 POP PUSH2 0xDC9 PUSH1 0x0 DUP4 ADD DUP6 PUSH2 0x936 JUMP JUMPDEST PUSH2 0xDD6 PUSH1 0x20 DUP4 ADD DUP5 PUSH2 0x936 JUMP JUMPDEST SWAP4 SWAP3 POP POP POP JUMP JUMPDEST PUSH32 0x4E487B7100000000000000000000000000000000000000000000000000000000 PUSH1 0x0 MSTORE PUSH1 0x11 PUSH1 0x4 MSTORE PUSH1 0x24 PUSH1 0x0 REVERT JUMPDEST PUSH1 0x0 PUSH2 0xE17 DUP3 PUSH2 0x893 JUMP JUMPDEST SWAP2 POP PUSH32 0xFFFFFFFFFFFFFFFFFFFFFFFFFFFFFFFFFFFFFFFFFFFFFFFFFFFFFFFFFFFFFFFF DUP3 SUB PUSH2 0xE49 JUMPI PUSH2 0xE48 PUSH2 0xDDD JUMP JUMPDEST JUMPDEST PUSH1 0x1 DUP3 ADD SWAP1 POP SWAP2 SWAP1 POP JUMP JUMPDEST PUSH32 0x4E487B7100000000000000000000000000000000000000000000000000000000 PUSH1 0x0 MSTORE PUSH1 0x22 PUSH1 0x4 MSTORE PUSH1 0x24 PUSH1 0x0 REVERT JUMPDEST PUSH1 0x0 PUSH1 0x2 DUP3 DIV SWAP1 POP PUSH1 0x1 DUP3 AND DUP1 PUSH2 0xE9B JUMPI PUSH1 0x7F DUP3 AND SWAP2 POP JUMPDEST PUSH1 0x20 DUP3 LT DUP2 SUB PUSH2 0xEAE JUMPI PUSH2 0xEAD PUSH2 0xE54 JUMP JUMPDEST JUMPDEST POP SWAP2 SWAP1 POP JUMP JUMPDEST PUSH1 0x0 DUP2 SWAP1 POP DUP2 PUSH1 0x0 MSTORE PUSH1 0x20 PUSH1 0x0 KECCAK256 SWAP1 POP SWAP2 SWAP1 POP JUMP JUMPDEST PUSH1 0x0 PUSH1 0x20 PUSH1 0x1F DUP4 ADD DIV SWAP1 POP SWAP2 SWAP1 POP JUMP JUMPDEST PUSH1 0x0 DUP3 DUP3 SHL SWAP1 POP SWAP3 SWAP2 POP POP JUMP JUMPDEST PUSH1 0x0 PUSH1 0x8 DUP4 MUL PUSH2 0xF16 PUSH32 0xFFFFFFFFFFFFFFFFFFFFFFFFFFFFFFFFFFFFFFFFFFFFFFFFFFFFFFFFFFFFFFFF DUP3 PUSH2 0xED9 JUMP JUMPDEST PUSH2 0xF20 DUP7 DUP4 PUSH2 0xED9 JUMP JUMPDEST SWAP6 POP DUP1 NOT DUP5 AND SWAP4 POP DUP1 DUP7 AND DUP5 OR SWAP3 POP POP POP SWAP4 SWAP3 POP POP POP JUMP JUMPDEST PUSH1 0x0 DUP2 SWAP1 POP SWAP2 SWAP1 POP JUMP JUMPDEST PUSH1 0x0 PUSH2 0xF5D PUSH2 0xF58 PUSH2 0xF53 DUP5 PUSH2 0x893 JUMP JUMPDEST PUSH2 0xF38 JUMP JUMPDEST PUSH2 0x893 JUMP JUMPDEST SWAP1 POP SWAP2 SWAP1 POP JUMP JUMPDEST PUSH1 0x0 DUP2 SWAP1 POP SWAP2 SWAP1 POP JUMP JUMPDEST PUSH2 0xF77 DUP4 PUSH2 0xF42 JUMP JUMPDEST PUSH2 0xF8B PUSH2 0xF83 DUP3 PUSH2 0xF64 JUMP JUMPDEST DUP5 DUP5 SLOAD PUSH2 0xEE6 JUMP JUMPDEST DUP3 SSTORE POP POP POP POP JUMP JUMPDEST PUSH1 0x0 SWAP1 JUMP JUMPDEST PUSH2 0xFA0 PUSH2 0xF93 JUMP JUMPDEST PUSH2 0xFAB DUP2 DUP5 DUP5 PUSH2 0xF6E JUMP JUMPDEST POP POP POP JUMP JUMPDEST JUMPDEST DUP2 DUP2 LT ISZERO PUSH2 0xFCF JUMPI PUSH2 0xFC4 PUSH1 0x0 DUP3 PUSH2 0xF98 JUMP JUMPDEST PUSH1 0x1 DUP2 ADD SWAP1 POP PUSH2 0xFB1 JUMP JUMPDEST POP POP JUMP JUMPDEST PUSH1 0x1F DUP3 GT ISZERO PUSH2 0x1014 JUMPI PUSH2 0xFE5 DUP2 PUSH2 0xEB4 JUMP JUMPDEST PUSH2 0xFEE DUP5 PUSH2 0xEC9 JUMP JUMPDEST DUP2 ADD PUSH1 0x20 DUP6 LT ISZERO PUSH2 0xFFD JUMPI DUP2 SWAP1 POP JUMPDEST PUSH2 0x1011 PUSH2 0x1009 DUP6 PUSH2 0xEC9 JUMP JUMPDEST DUP4 ADD DUP3 PUSH2 0xFB0 JUMP JUMPDEST POP POP JUMPDEST POP POP POP JUMP JUMPDEST PUSH1 0x0 DUP3 DUP3 SHR SWAP1 POP SWAP3 SWAP2 POP POP JUMP JUMPDEST PUSH1 0x0 PUSH2 0x1037 PUSH1 0x0 NOT DUP5 PUSH1 0x8 MUL PUSH2 0x1019 JUMP JUMPDEST NOT DUP1 DUP4 AND SWAP2 POP POP SWAP3 SWAP2 POP POP JUMP JUMPDEST PUSH1 0x0 PUSH2 0x1050 DUP4 DUP4 PUSH2 0x1026 JUMP JUMPDEST SWAP2 POP DUP3 PUSH1 0x2 MUL DUP3 OR SWAP1 POP SWAP3 SWAP2 POP POP JUMP JUMPDEST PUSH2 0x1069 DUP3 PUSH2 0xAEF JUMP JUMPDEST PUSH8 0xFFFFFFFFFFFFFFFF DUP2 GT ISZERO PUSH2 0x1082 JUMPI PUSH2 0x1081 PUSH2 0x97B JUMP JUMPDEST JUMPDEST PUSH2 0x108C DUP3 SLOAD PUSH2 0xE83 JUMP JUMPDEST PUSH2 0x1097 DUP3 DUP3 DUP6 PUSH2 0xFD3 JUMP JUMPDEST PUSH1 0x0 PUSH1 0x20 SWAP1 POP PUSH1 0x1F DUP4 GT PUSH1 0x1 DUP2 EQ PUSH2 0x10CA JUMPI PUSH1 0x0 DUP5 ISZERO PUSH2 0x10B8 JUMPI DUP3 DUP8 ADD MLOAD SWAP1 POP JUMPDEST PUSH2 0x10C2 DUP6 DUP3 PUSH2 0x1044 JUMP JUMPDEST DUP7 SSTORE POP PUSH2 0x112A JUMP JUMPDEST PUSH1 0x1F NOT DUP5 AND PUSH2 0x10D8 DUP7 PUSH2 0xEB4 JUMP JUMPDEST PUSH1 0x0 JUMPDEST DUP3 DUP2 LT ISZERO PUSH2 0x1100 JUMPI DUP5 DUP10 ADD MLOAD DUP3 SSTORE PUSH1 0x1 DUP3 ADD SWAP2 POP PUSH1 0x20 DUP6 ADD SWAP5 POP PUSH1 0x20 DUP2 ADD SWAP1 POP PUSH2 0x10DB JUMP JUMPDEST DUP7 DUP4 LT ISZERO PUSH2 0x111D JUMPI DUP5 DUP10 ADD MLOAD PUSH2 0x1119 PUSH1 0x1F DUP10 AND DUP3 PUSH2 0x1026 JUMP JUMPDEST DUP4 SSTORE POP JUMPDEST PUSH1 0x1 PUSH1 0x2 DUP9 MUL ADD DUP9 SSTORE POP POP POP JUMPDEST POP POP POP POP POP POP JUMP JUMPDEST PUSH1 0x0 PUSH1 0x60 DUP3 ADD SWAP1 POP PUSH2 0x1147 PUSH1 0x0 DUP4 ADD DUP7 PUSH2 0x936 JUMP JUMPDEST DUP2 DUP2 SUB PUSH1 0x20 DUP4 ADD MSTORE PUSH2 0x1159 DUP2 DUP6 PUSH2 0xB35 JUMP JUMPDEST SWAP1 POP PUSH2 0x1168 PUSH1 0x40 DUP4 ADD DUP5 PUSH2 0xBA0 JUMP JUMPDEST SWAP5 SWAP4 POP POP POP POP JUMP JUMPDEST PUSH32 0x50726F7065727479206973206E6F7420666F722073616C650000000000000000 PUSH1 0x0 DUP3 ADD MSTORE POP JUMP JUMPDEST PUSH1 0x0 PUSH2 0x11A6 PUSH1 0x18 DUP4 PUSH2 0xAFA JUMP JUMPDEST SWAP2 POP PUSH2 0x11B1 DUP3 PUSH2 0x1170 JUMP JUMPDEST PUSH1 0x20 DUP3 ADD SWAP1 POP SWAP2 SWAP1 POP JUMP JUMPDEST PUSH1 0x0 PUSH1 0x20 DUP3 ADD SWAP1 POP DUP2 DUP2 SUB PUSH1 0x0 DUP4 ADD MSTORE PUSH2 0x11D5 DUP2 PUSH2 0x1199 JUMP JUMPDEST SWAP1 POP SWAP2 SWAP1 POP JUMP JUMPDEST PUSH32 0x496E73756666696369656E742066756E64732073656E74000000000000000000 PUSH1 0x0 DUP3 ADD MSTORE POP JUMP JUMPDEST PUSH1 0x0 PUSH2 0x1212 PUSH1 0x17 DUP4 PUSH2 0xAFA JUMP JUMPDEST SWAP2 POP PUSH2 0x121D DUP3 PUSH2 0x11DC JUMP JUMPDEST PUSH1 0x20 DUP3 ADD SWAP1 POP SWAP2 SWAP1 POP JUMP JUMPDEST PUSH1 0x0 PUSH1 0x20 DUP3 ADD SWAP1 POP DUP2 DUP2 SUB PUSH1 0x0 DUP4 ADD MSTORE PUSH2 0x1241 DUP2 PUSH2 0x1205 JUMP JUMPDEST SWAP1 POP SWAP2 SWAP1 POP JUMP JUMPDEST PUSH32 0x4F6E6C7920746865206F776E65722063616E207472616E736665722074686520 PUSH1 0x0 DUP3 ADD MSTORE PUSH32 0x70726F7065727479000000000000000000000000000000000000000000000000 PUSH1 0x20 DUP3 ADD MSTORE POP JUMP JUMPDEST PUSH1 0x0 PUSH2 0x12A4 PUSH1 0x28 DUP4 PUSH2 0xAFA JUMP JUMPDEST SWAP2 POP PUSH2 0x12AF DUP3 PUSH2 0x1248 JUMP JUMPDEST PUSH1 0x40 DUP3 ADD SWAP1 POP SWAP2 SWAP1 POP JUMP JUMPDEST PUSH1 0x0 PUSH1 0x20 DUP3 ADD SWAP1 POP DUP2 DUP2 SUB PUSH1 0x0 DUP4 ADD MSTORE PUSH2 0x12D3 DUP2 PUSH2 0x1297 JUMP JUMPDEST SWAP1 POP SWAP2 SWAP1 POP JUMP JUMPDEST PUSH1 0x0 PUSH1 0x60 DUP3 ADD SWAP1 POP PUSH2 0x12EF PUSH1 0x0 DUP4 ADD DUP7 PUSH2 0x936 JUMP JUMPDEST PUSH2 0x12FC PUSH1 0x20 DUP4 ADD DUP6 PUSH2 0xBA0 JUMP JUMPDEST PUSH2 0x1309 PUSH1 0x40 DUP4 ADD DUP5 PUSH2 0xBA0 JUMP JUMPDEST SWAP5 SWAP4 POP POP POP POP JUMP INVALID LOG2 PUSH5 0x6970667358 0x22 SLT KECCAK256 PUSH26 0xAF1BDAD1E105890736E56F0093F8C94C914E73E2AB0F58CA426F 0xBA 0xB7 RETURNDATASIZE EQ 0xDF PUSH5 0x736F6C6343 STOP ADDMOD XOR STOP CALLER "
        },
        "methodIdentifiers": {
          "delistProperty(uint256)": "1cc2ea7a",
          "listProperty(uint256,uint256)": "4eda529b",
          "properties(uint256)": "f7b10808",
          "propertyCount()": "c361a335",
          "registerProperty(string)": "d2675d59",
          "transferProperty(uint256,address)": "ff356237"
        }
      }
    }
  }
}