{
  "_format": "hh-sol-artifact-1",
  "contractName": "RealEstateRegistry",
  "sourceName": "contracts/RealEstateRegistry.sol",
  "abi": [
    {
      "anonymous": false,
      "inputs": [
        {
          "indexed": false,
          "internalType": "uint256",
          "name": "id",
          "type": "uint256"
        }
      ],
      "name": "PropertyDelisted",
      "type": "event"
    },
    {
      "anonymous": false,
      "inputs": [
        {
          "indexed": false,
          "internalType": "uint256",
          "name": "id",
          "type": "uint256"
        },
        {
          "indexed": false,
          "internalType": "uint256",
          "name": "price",
          "type": "uint256"
        }
      ],
      "name": "PropertyListed",
      "type": "event"
    },
    {
      "anonymous": false,
      "inputs": [
        {
          "indexed": false,
          "internalType": "uint256",
          "name": "id",
          "type": "uint256"
        },
        {
          "indexed": false,
          "internalType": "string",
          "name": "location",
          "type": "string"
        },
        {
          "indexed": false,
          "internalType": "address",
          "name": "owner",
          "type": "address"
        }
      ],
      "name": "PropertyRegistered",
      "type": "event"
    },
    {
      "anonymous": false,
      "inputs": [
        {
          "indexed": false,
          "internalType": "uint256",
          "name": "id",
          "type": "uint256"
        },
        {
          "indexed": false,
          "internalType": "address",
          "name": "from",
          "type": "address"
        },
        {
          "indexed": false,
          "internalType": "address",
          "name": "to",
          "type": "address"
        }
      ],
      "name": "PropertyTransferred",
      "type": "event"
    },
    {
      "inputs": [
        {
          "internalType": "uint256",
          "name": "_id",
          "type": "uint256"
        }
      ],
      "name": "delistProperty",
      "outputs": [],
      "stateMutability": "nonpayable",
      "type": "function"
    },
    {
      "inputs": [
        {
          "internalType": "uint256",
          "name": "_id",
          "type": "uint256"
        },
        {
          "internalType": "uint256",
          "name": "_price",
          "type": "uint256"
        }
      ],
      "name": "listProperty",
      "outputs": [],
      "stateMutability": "nonpayable",
      "type": "function"
    },
    {
      "inputs": [
        {
          "internalType": "uint256",
          "name": "",
          "type": "uint256"
        }
      ],
      "name": "properties",
      "outputs": [
        {
          "internalType": "uint256",
          "name": "id",
          "type": "uint256"
        },
        {
          "internalType": "string",
          "name": "location",
          "type": "string"
        },
        {
          "internalType": "address",
          "name": "owner",
          "type": "address"
        },
        {
          "internalType": "bool",
          "name": "forSale",
          "type": "bool"
        },
        {
          "internalType": "uint256",
          "name": "price",
          "type": "uint256"
        }
      ],
      "stateMutability": "view",
      "type": "function"
    },
    {
      "inputs": [],
      "name": "propertyCount",
      "outputs": [
        {
          "internalType": "uint256",
          "name": "",
          "type": "uint256"
        }
      ],
      "stateMutability": "view",
      "type": "function"
    },
    {
      "inputs": [
        {
          "internalType": "string",
          "name": "_location",
          "type": "string"
        }
      ],
      "name": "registerProperty",
      "outputs": [],
      "stateMutability": "nonpayable",
      "type": "function"
    },
    {
      "inputs": [
        {
          "internalType": "uint256",
          "name": "_id",
          "type": "uint256"
        },
        {
          "internalType": "address",
          "name": "_to",
          "type": "address"
        }
      ],
      "name": "transferProperty",
      "outputs": [],
      "stateMutability": "payable",
      "type": "function"
    }
  ],
  "bytecode": "0x608060405234801561001057600080fd5b50611347806100206000396000f3fe6080604052600436106100555760003560e01c80631cc2ea7a1461005a5780634eda529b14610083578063c361a335146100ac578063d2675d59146100d7578063f7b1080814610100578063ff35623714610141575b600080fd5b34801561006657600080fd5b50610081600480360381019061007c91906108c9565b61015d565b005b34801561008f57600080fd5b506100aa60048036038101906100a591906108f6565b610268565b005b3480156100b857600080fd5b506100c1610390565b6040516100ce9190610945565b60405180910390f35b3480156100e357600080fd5b506100fe60048036038101906100f99190610aa6565b610396565b005b34801561010c57600080fd5b50610127600480360381019061012291906108c9565b6104d9565b604051610138959493929190610bca565b60405180910390f35b61015b60048036038101906101569190610c50565b6105c4565b005b3373ffffffffffffffffffffffffffffffffffffffff1660008083815260200190815260200160002060020160009054906101000a900473ffffffffffffffffffffffffffffffffffffffff1673ffffffffffffffffffffffffffffffffffffffff1614610200576040517f08c379a00000000000000000000000000000000000000000000000000000000081526004016101f790610d02565b60405180910390fd5b600080600083815260200190815260200160002060020160146101000a81548160ff0219169083151502179055507f96abd22e7d47a60e2f7c6de9d91b2dacc141b1f21ce398bbd843e08c8ce6a02d8160405161025d9190610945565b60405180910390a150565b3373ffffffffffffffffffffffffffffffffffffffff1660008084815260200190815260200160002060020160009054906101000a900473ffffffffffffffffffffffffffffffffffffffff1673ffffffffffffffffffffffffffffffffffffffff161461030b576040517f08c379a000000000000000000000000000000000000000000000000000000000815260040161030290610d94565b60405180910390fd5b600160008084815260200190815260200160002060020160146101000a81548160ff02191690831515021790555080600080848152602001908152602001600020600301819055507fd2acfbe1632c42ab1e36cabad615126d27fa805ef1e2efc7ceec17c60ffbaafd8282604051610384929190610db4565b60405180910390a15050565b60015481565b600160008154809291906103a990610e0c565b91905055506040518060a0016040528060015481526020018281526020013373ffffffffffffffffffffffffffffffffffffffff168152602001600015158152602001600081525060008060015481526020019081526020016000206000820151816000015560208201518160010190816104249190611060565b5060408201518160020160006101000a81548173ffffffffffffffffffffffffffffffffffffffff021916908373ffffffffffffffffffffffffffffffffffffffff16021790555060608201518160020160146101000a81548160ff021916908315150217905550608082015181600301559050507f48f60036379fd7c4097915cf4b2dcab366c2d3881ae8b3cb2c19d6f7e35719b960015482336040516104ce93929190611132565b60405180910390a150565b600060205280600052604060002060009150905080600001549080600101805461050290610e83565b80601f016020809104026020016040519081016040528092919081815260200182805461052e90610e83565b801561057b5780601f106105505761010080835404028352916020019161057b565b820191906000526020600020905b81548152906001019060200180831161055e57829003601f168201915b5050505050908060020160009054906101000a900473ffffffffffffffffffffffffffffffffffffffff16908060020160149054906101000a900460ff16908060030154905085565b60008083815260200190815260200160002060020160149054906101000a900460ff16610626576040517f08c379a000000000000000000000000000000000000000000000000000000000815260040161061d906111bc565b60405180910390fd5b6000808381526020019081526020016000206003015434101561067e576040517f08c379a000000000000000000000000000000000000000000000000000000000815260040161067590611228565b60405180910390fd5b3373ffffffffffffffffffffffffffffffffffffffff1660008084815260200190815260200160002060020160009054906101000a900473ffffffffffffffffffffffffffffffffffffffff1673ffffffffffffffffffffffffffffffffffffffff1614610721576040517f08c379a0000000000000000000000000000000000000000000000000000000008152600401610718906112ba565b60405180910390fd5b600080600084815260200190815260200160002060020160009054906101000a900473ffffffffffffffffffffffffffffffffffffffff1690508160008085815260200190815260200160002060020160006101000a81548173ffffffffffffffffffffffffffffffffffffffff021916908373ffffffffffffffffffffffffffffffffffffffff160217905550600080600085815260200190815260200160002060020160146101000a81548160ff0219169083151502179055506000806000858152602001908152602001600020600301819055508073ffffffffffffffffffffffffffffffffffffffff166108fc349081150290604051600060405180830381858888f1935050505015801561083e573d6000803e3d6000fd5b507f2231fc8bc2c20e26d85d66dc7f13a6b6d535c86d2a4d678bb2de61f5b7136083838284604051610872939291906112da565b60405180910390a1505050565b6000604051905090565b600080fd5b600080fd5b6000819050919050565b6108a681610893565b81146108b157600080fd5b50565b6000813590506108c38161089d565b92915050565b6000602082840312156108df576108de610889565b5b60006108ed848285016108b4565b91505092915050565b6000806040838503121561090d5761090c610889565b5b600061091b858286016108b4565b925050602061092c858286016108b4565b9150509250929050565b61093f81610893565b82525050565b600060208201905061095a6000830184610936565b92915050565b600080fd5b600080fd5b6000601f19601f8301169050919050565b7f4e487b7100000000000000000000000000000000000000000000000000000000600052604160045260246000fd5b6109b38261096a565b810181811067ffffffffffffffff821117156109d2576109d161097b565b5b80604052505050565b60006109e561087f565b90506109f182826109aa565b919050565b600067ffffffffffffffff821115610a1157610a1061097b565b5b610a1a8261096a565b9050602081019050919050565b82818337600083830152505050565b6000610a49610a44846109f6565b6109db565b905082815260208101848484011115610a6557610a64610965565b5b610a70848285610a27565b509392505050565b600082601f830112610a8d57610a8c610960565b5b8135610a9d848260208601610a36565b91505092915050565b600060208284031215610abc57610abb610889565b5b600082013567ffffffffffffffff811115610ada57610ad961088e565b5b610ae684828501610a78565b91505092915050565b600081519050919050565b600082825260208201905092915050565b60005b83811015610b29578082015181840152602081019050610b0e565b60008484015250505050565b6000610b4082610aef565b610b4a8185610afa565b9350610b5a818560208601610b0b565b610b638161096a565b840191505092915050565b600073ffffffffffffffffffffffffffffffffffffffff82169050919050565b6000610b9982610b6e565b9050919050565b610ba981610b8e565b82525050565b60008115159050919050565b610bc481610baf565b82525050565b600060a082019050610bdf6000830188610936565b8181036020830152610bf18187610b35565b9050610c006040830186610ba0565b610c0d6060830185610bbb565b610c1a6080830184610936565b9695505050505050565b610c2d81610b8e565b8114610c3857600080fd5b50565b600081359050610c4a81610c24565b92915050565b60008060408385031215610c6757610c66610889565b5b6000610c75858286016108b4565b9250506020610c8685828601610c3b565b9150509250929050565b7f4f6e6c7920746865206f776e65722063616e2064656c6973742074686520707260008201527f6f70657274790000000000000000000000000000000000000000000000000000602082015250565b6000610cec602683610afa565b9150610cf782610c90565b604082019050919050565b60006020820190508181036000830152610d1b81610cdf565b9050919050565b7f4f6e6c7920746865206f776e65722063616e206c697374207468652070726f7060008201527f6572747900000000000000000000000000000000000000000000000000000000602082015250565b6000610d7e602483610afa565b9150610d8982610d22565b604082019050919050565b60006020820190508181036000830152610dad81610d71565b9050919050565b6000604082019050610dc96000830185610936565b610dd66020830184610936565b9392505050565b7f4e487b7100000000000000000000000000000000000000000000000000000000600052601160045260246000fd5b6000610e1782610893565b91507fffffffffffffffffffffffffffffffffffffffffffffffffffffffffffffffff8203610e4957610e48610ddd565b5b600182019050919050565b7f4e487b7100000000000000000000000000000000000000000000000000000000600052602260045260246000fd5b60006002820490506001821680610e9b57607f821691505b602082108103610eae57610ead610e54565b5b50919050565b60008190508160005260206000209050919050565b60006020601f8301049050919050565b600082821b905092915050565b600060088302610f167fffffffffffffffffffffffffffffffffffffffffffffffffffffffffffffffff82610ed9565b610f208683610ed9565b95508019841693508086168417925050509392505050565b6000819050919050565b6000610f5d610f58610f5384610893565b610f38565b610893565b9050919050565b6000819050919050565b610f7783610f42565b610f8b610f8382610f64565b848454610ee6565b825550505050565b600090565b610fa0610f93565b610fab818484610f6e565b505050565b5b81811015610fcf57610fc4600082610f98565b600181019050610fb1565b5050565b601f82111561101457610fe581610eb4565b610fee84610ec9565b81016020851015610ffd578190505b61101161100985610ec9565b830182610fb0565b50505b505050565b600082821c905092915050565b600061103760001984600802611019565b1980831691505092915050565b60006110508383611026565b9150826002028217905092915050565b61106982610aef565b67ffffffffffffffff8111156110825761108161097b565b5b61108c8254610e83565b611097828285610fd3565b600060209050601f8311600181146110ca57600084156110b8578287015190505b6110c28582611044565b86555061112a565b601f1984166110d886610eb4565b60005b82811015611100578489015182556001820191506020850194506020810190506110db565b8683101561111d5784890151611119601f891682611026565b8355505b6001600288020188555050505b505050505050565b60006060820190506111476000830186610936565b81810360208301526111598185610b35565b90506111686040830184610ba0565b949350505050565b7f50726f7065727479206973206e6f7420666f722073616c650000000000000000600082015250565b60006111a6601883610afa565b91506111b182611170565b602082019050919050565b600060208201905081810360008301526111d581611199565b9050919050565b7f496e73756666696369656e742066756e64732073656e74000000000000000000600082015250565b6000611212601783610afa565b915061121d826111dc565b602082019050919050565b6000602082019050818103600083015261124181611205565b9050919050565b7f4f6e6c7920746865206f776e65722063616e207472616e73666572207468652060008201527f70726f7065727479000000000000000000000000000000000000000000000000602082015250565b60006112a4602883610afa565b91506112af82611248565b604082019050919050565b600060208201905081810360008301526112d381611297565b9050919050565b60006060820190506112ef6000830186610936565b6112fc6020830185610ba0565b6113096040830184610ba0565b94935050505056fea264697066735822122079af1bdad1e105890736e56f0093f8c94c914e73e2ab0f58ca426fbab73d14df64736f6c63430008180033",
  "linkReferences": {},
  "deployedLinkReferences": {}
}